:02000004F90001
:100000006F0040001701080013010154970200001F
:100010009382020173901234930240007390523025
:10002000B7120000938202807390423093028000E6
:1000300073900230EF10C008730020300000000001
:1000400003254500135505011375F50F6780000062
:10005000130101FF23261100232481002322910094
:10006000130405009384050013050400EFF05FFD01
:10007000E30C05FE232094008320C10003248100AB
:10008000832441001301010167800000130101FF77
:1000900023261100232481002322910093040500CC
:1000A0001384050083450400638A050013041400CB
:1000B00013850400EFF0DFF96FF0DFFE8320C1004D
:1000C00003248100832441001301010167800000A3
:1000D000130101FF23261100232481002322910014
:1000E00023202101130905009384050013047000E7
:1000F0006F0040019385050313050900EFF05FF5DC
:100100001304F4FF6340040293152400B3D5B440F4
:1001100093F5F50093079000E3DEB7FC9385750334
:100120006FF09FFD8320C1000324810083244100E0
:10013000032901001301010167800000B7470F0088
:1001400093870724B3D5F502B7C70000938787FFCD
:100150003306F600832706003385A5023305F50034
:1001600083270600B307F540E3DC07FE6780000045
:10017000130101FF2326110093050500371500F830
:10018000EFF0DFF09305A000371500F8EFF05FEC1B
:100190009305D000371500F8EFF09FEB8320C100E6
:1001A0001301010167800000130101FF23261100E4
:1001B0009307900063E0A702130505039375F50FFD
:1001C000371500F8EFF0DFE88320C10013010101CB
:1001D00067800000130575039375F50F6FF05FFEE0
:1001E00083A705002324F50283A745002326F502F3
:1001F00083A785002328F50283A7C5002328F504DB
:1002000083A70501232AF50483A74501232CF504C0
:100210006780000003250504137515006780000042
:1002200013070504930700012320F5048327070023
:1002300093F70701E39C07FE67800000130101FFAD
:100240002326110023248100130405001305040054
:10025000EFF05FFCE31C05FE8320C1000324810056
:100260001301010167800000130101FF2326110023
:10027000130700022320E504EFF05FFC8320C10098
:1002800013010101678000008327450093F70710E1
:10029000E39C07FE67800000130101FF2326110085
:1002A000130700302322E500EFF01FFE8320C1007A
:1002B0001301010167800000130101FF23261100D3
:1002C000130710302322E500EFF01FFC8320C1004C
:1002D0001301010167800000032585001375F50FE8
:1002E00067800000032505006780000083A70500E4
:1002F0002322F50067800000130101FD232611026F
:10030000930730002324F100B76700009387871A12
:100310002326F1009307C0002328F1009307F00182
:10032000232AF100232CF1009307E003232EF10090
:100330009305810037A500F8EFF09FEA930581004F
:1003400037B500F8EFF0DFE98320C10213010103A4
:100350006780000067800000130101FF2326110061
:1003600023248100232291002320210193040500EE
:1003700037B500F8EFF0DFEA37B900F837140000BE
:10038000930704B82320F90037B500F8EFF0DFF247
:1003900093F4F40F930704B0B3E4F400232099001E
:1003A00037B500F8EFF05FF137B500F8EFF0DFEBAD
:1003B00037B500F8EFF0DFE6930714B82320F90013
:1003C00037B500F8EFF05FEF37B500F8EFF0DFF08A
:1003D0001304F4BF2320890037B500F8EFF0DFEBFA
:1003E00037B500F8EFF05FEF9314050193D40401E3
:1003F000939484009394040193D4040123208900EE
:1004000037B500F8EFF05FEB37B500F8EFF0DFEC51
:10041000131405011354040133049400131404014C
:100420001354040137B500F8EFF01FE4130504007E
:100430008320C1000324810083244100032901009B
:100440001301010167800000130101FE232E11003A
:10045000232C8100232A9100232821012326310106
:10046000130905001384050037B500F8EFF05FDBD2
:10047000B7B900F8B7140000938704B823A0F900B7
:1004800037B500F8EFF05FE337B500F8EFF0DFE4E1
:100490001379F90F938404B03369990023A02901DB
:1004A00037B500F8EFF05FE137B500F8EFF0DFE2C5
:1004B00093578400B3E7970023A0F90037B500F8FD
:1004C000EFF09FDF37B500F8EFF01FE11374F40F82
:1004D0003364940023A0890037B500F8EFF0DFDD26
:1004E00037B500F8EFF05FDF37B500F8EFF0DFD792
:1004F0008320C101032481018324410103290101D7
:100500008329C1001301010267800000130101FF6C
:10051000232611002324810023229100232021017E
:10052000930405001389050037A500F8EFF05FCFAD
:1005300037A700F8B71700009387A7BA2320F70062
:1005400037A500F8EFF05FD713040000635894025A
:10055000B307890083C7070037170000130707B0E8
:10056000B3E7E70037A700F82320F70037A500F826
:10057000EFF09FD4130414006FF05FFD37A500F86F
:10058000EFF09FCE8320C10003248100832441002B
:10059000032901001301010167800000130101FE1E
:1005A000232E1100232C8100232A910023282101CE
:1005B00023263101930405001389050093090000E7
:1005C00037A500F8EFF0DFC537A700F8B717000030
:1005D0009387B7BA2320F70037A500F8EFF0DFCDF7
:1005E000130400006F00C00137A500F8EFF0DFCC66
:1005F0006F004003B30789002380A7001304140091
:10060000635E940237A700F8B71700009387F7BF1F
:100610002320F7009387F4FFE38887FC37A500F8D1
:10062000EFF09FC737A500F8EFF01FCB1375F50F5C
:10063000E31204FC930905006FF0DFFB37A500F817
:10064000EFF09FC2138509008320C10103248101BB
:1006500083244101032901018329C10013010102FF
:1006600067800000130101FD23261102232481026B
:100670002322910223202103232E31019309050017
:100680001389050093040600B70508F99385050052
:10069000371500F8EFF09F9F9305A00A371500F873
:1006A000EFF01FA3370408F993050401371500F88C
:1006B000EFF0DF9D93850900371500F8EFF05FA19B
:1006C00093050401371500F8EFF05F9C93050900CE
:1006D000371500F8EFF0DF9F93050401371500F898
:1006E000EFF0DF9A93850400371500F8EFF05F9E76
:1006F00093050401371500F8EFF05F9923063101E7
:10070000A3062101230791009305C10013053000C2
:10071000EFF0DFDF3706B0F8B7847D0193850484FE
:1007200037A50000130505C4EFF05FA19305810014
:1007300013051000EFF09FE603448100B70508F9A8
:1007400093854501371500F8EFF05F949305040099
:10075000371500F8EFF0DF97B70508F99385C50363
:10076000371500F8EFF09F923706B0F893850484B0
:1007700013054006EFF09F9C130504008320C1027F
:100780000324810283244102032901028329C10138
:100790001301010367800000130101FE232E1100E5
:1007A000232C81002306A100A306B1009305C100FC
:1007B00013052000EFF09FD53706B0F837847D0190
:1007C000930504841305007DEFF05F979305810086
:1007D00013052000EFF09FDC83458100371500F8FA
:1007E000EFF01F8FB70508F993850501371500F85D
:1007F000EFF0DF8983459100371500F8EFF05F8D4A
:10080000B70508F99385C503371500F8EFF01F8881
:100810003706B0F89305048413054006EFF01F92E5
:10082000034591008320C1010324810113010102CA
:100830006780000037D700F88327470093F7E70069
:1008400013751500B3E7A7002322F70067800000A7
:1008500037D700F88327470093F7D7001315150003
:1008600013752500B3E7A7002322F7006780000077
:100870006314050067800000130101FF23261100A7
:100880002324810013040500371500F8EFF01F80C2
:10089000B70508F993850502371500F8EFF00FFF4B
:1008A00093050400371500F8EFF09F82B70508F9AB
:1008B0009385C503371500F8EFF04FFD8320C10085
:1008C000032481001301010167800000130101FE70
:1008D000232E110023060100A30601009305C10089
:1008E00013052000EFF09FC23706B0F8B7857D01F1
:1008F0009385058437A50000130505C4EFF01F8418
:100900009305810013052000EFF05FC903459100B6
:100910008320C1011301010267800000130101FE61
:10092000232E1100930720012306F100A3060100E6
:100930009305C10013052000EFF05FBD3706B0F846
:10094000B7857D019385058437A50000130505C48F
:10095000EFF0CFFE9305810013052000EFF01FC4D8
:10096000034591008320C10113010102678000004B
:10097000130101FE232E1100930730012306F1001D
:10098000A3060100930740002307F1009305C1006F
:1009900013053000EFF09FB73706B0F8B7857D013B
:1009A0009385058437A50000130505C4EFF00FF902
:1009B0009305810013052000EFF05FBE0345910011
:1009C0008320C1011301010267800000130101FEB1
:1009D000232E1100930700052304F1009307200044
:1009E000A304F1001307B0002305E100A3050100F3
:1009F0002306F1009307F006A306F1009307000613
:100A00002307F1009305810013057000EFF01FB07C
:100A10003706B0F8B7857D019385058437A50000BA
:100A2000130505C4EFF08FF1930541001305200075
:100A3000EFF0DFB6034541008320C101130101023D
:100A400067800000130101FC232E1102232C810278
:100A5000232A91022328210323263103232441033F
:100A600093072001230EF10093071000A30EF1005D
:100A70009305C10113052000EFF05FA93706B0F818
:100A8000B7857D019385058437A50000130505C44E
:100A9000EFF0CFEA930501001305C001EFF01FB09E
:100AA000B70508F99385C502371500F8EFF00FDE9A
:100AB00083451100371500F8EFF08FE1370408F98E
:100AC00093050401371500F8EFF04FDC8345210052
:100AD000371500F8EFF0CFDF93050401371500F864
:100AE000EFF0CFDA83453100371500F8EFF04FDE35
:100AF00093050401371500F8EFF04FD9B70408F952
:100B00009385C403371500F8EFF04FD883454100B3
:100B1000371500F8EFF0CFDB93050401371500F827
:100B2000EFF0CFD683455100371500F8EFF04FDADC
:100B300093050401371500F8EFF04FD583456100A8
:100B4000371500F8EFF0CFD893050401371500F8FA
:100B5000EFF0CFD39385C403371500F8EFF00FD330
:100B600083457100371500F8EFF08FD69305040127
:100B7000371500F8EFF08FD183458100371500F865
:100B8000EFF00FD593050401371500F8EFF00FD003
:100B900083459100371500F8EFF08FD393050401DA
:100BA000371500F8EFF08FCE9385C403371500F8A2
:100BB000EFF0CFCD8345A100371500F8EFF04FD10E
:100BC00093050401371500F8EFF04FCC8345B100D1
:100BD000371500F8EFF0CFCF93050401371500F873
:100BE000EFF0CFCA8345C100371500F8EFF04FCEC4
:100BF00093050401371500F8EFF04FC99385C4033E
:100C0000371500F8EFF08FC8B70508F9938505048C
:100C1000371500F8EFF08FC78345D100371500F87E
:100C2000EFF00FCB93050401371500F8EFF00FC676
:100C30008345E100371500F8EFF08FC993050401F3
:100C4000371500F8EFF08FC49385C403371500F80B
:100C5000EFF0CFC38345F100371500F8EFF04FC731
:100C600093050401371500F8EFF04FC29385C403D4
:100C7000371500F8EFF08FC183450101371500F8F3
:100C8000EFF00FC593050401371500F8EFF00FC022
:100C900083451101371500F8EFF08FC39305040168
:100CA000371500F8EFF08FBE9385C403371500F8B1
:100CB000EFF0CFBD83452101371500F8EFF04FC1AC
:100CC00093050401371500F8EFF04FBC9385C4037A
:100CD000371500F8EFF08FBB83453101371500F869
:100CE000EFF00FBF93050401371500F8EFF00FBACE
:100CF0009385C403371500F8EFF04FB983454101E0
:100D0000371500F8EFF0CFBC93050401371500F854
:100D1000EFF0CFB79385C403371500F8EFF00FB7A6
:100D200083455101371500F8EFF08FBA93050401A0
:100D3000371500F8EFF08FB59385C403371500F829
:100D4000EFF0CFB483456101371500F8EFF04FB8ED
:100D500093050401371500F8EFF04FB39385C403F2
:100D6000371500F8EFF08FB283457101371500F8A1
:100D7000EFF00FB693050401371500F8EFF00FB14F
:100D80009385C403371500F8EFF04FB08345810118
:100D9000371500F8EFF0CFB393050401371500F8CD
:100DA000EFF0CFAE9385C403371500F8EFF00FAE28
:100DB00083459101371500F8EFF08FB193050401D9
:100DC000371500F8EFF08FAC9385C403371500F8A2
:100DD000EFF0CFAB8345A101371500F8EFF04FAF2F
:100DE00093050401371500F8EFF04FAA9385C4036B
:100DF000371500F8EFF08FA98345B101371500F8DA
:100E0000EFF00FAD93050401371500F8EFF00FA8D0
:100E10009385C403371500F8EFF04FA70344D100C2
:100E2000131484008347E1003304F4001314040115
:100E3000135404018347010193978700034711016D
:100E4000B387E7009397070193D707011307803E05
:100E5000335AE4029306A000337ADA0213198A00A7
:100E600013064006B359C402B3F9D9029395490059
:100E70003309B9003354D4023374D40233098900DE
:100E8000B3D4E702B3F4D4029394840033D6C702F8
:100E90003376D60213164600B384C400B3D7D70204
:100EA000B3F7D702B384F400B70508F99385450575
:100EB000371500F8EFF08F9D13050A00EFF0CFAE65
:100EC00013850900EFF04FAE13050400EFF0CFAD2E
:100ED000B70508F993854506371500F8EFF00F9B25
:100EE000B70710F823A0970023A2270113050000DD
:100EF0008320C103032481038324410303290103C5
:100F00008329C102032A81021301010467800000C2
:100F1000130101FF232611002324810023229100C5
:100F20002320210137D900F8930730002324F9004A
:100F300013051000EFF0DF9113050000EFF09F8F15
:100F40003706B0F837847D01930504843725000007
:100F500013050571EFF08F9E13051000EFF09F8DC4
:100F60003706B0F893050484B7E4160013850436F9
:100F7000EFF0CF9C930710002324F90093050000A5
:100F800013052000EFF05F8113090500B70508F98C
:100F900093850507371500F8EFF04F8F930509008B
:100FA000371500F8EFF0CF92B70508F99385C50320
:100FB000371500F8EFF08F8DB70508F99385050810
:100FC000371500F8EFF08F8C130630009305000002
:100FD00013050001EFF00FE9B70508F993854509FE
:100FE000EFF01F893706B0F89305048437A9000095
:100FF000130509C4EFF08F941306F0009305100059
:1010000013050001EFF00FE6B70508F99385450ACF
:10101000EFF01F863706B0F893050484130509C462
:10102000EFF0CF9113061000930500001305200583
:10103000EFF04FE3B70508F99385850BEFF05F8379
:101040003706B0F893050484130509C4EFF00F8F39
:10105000130610009305300013054004EFF08FE0F5
:10106000B70508F99385450CEFF09F803706B0F877
:101070009305048413850436EFF04F8C130610009B
:101080009305200013052005EFF0CFDDB70508F923
:101090009385450DEFF0CFFD3706B0F89305048436
:1010A00013850436EFF08F898320C100032481006B
:1010B000832441000329010013010101678000001E
:1010C000130101FE232E1100232C8100232A9100FD
:1010D000232821012326310123244101EFF0CFA150
:1010E000370508F91305850EEFF08F88EFF05FE202
:1010F000B70508F99385850F371500F8EFE01FF95C
:101100009305F01913050000EFF00FB4B775000058
:101110009385B58D13055000EFF00FB3B70508F9AF
:1011200093850511371500F8EFE05FF69304000092
:101130006F004004EFF01F916F00400BB70508F9F6
:1011400093858513371500F8EFE05FF43706B0F8A4
:10115000B7857D019385058413050020EFE01FFE10
:1011600093840420B70508F99385C503371500F863
:10117000EFE0DFF1EFF08FF5370408F9A302A414D4
:10118000EFF0CFF9B70908F92382A914B70508F9D8
:1011900093858512371500F8EFE05FEF834554140F
:1011A000371500F8EFE0DFF2370908F99305090178
:1011B000371500F8EFE09FED83C54914371500F8A7
:1011C000EFE01FF193050901371500F8EFE01FEC80
:1011D000B70508F99385C503371500F8EFE01FEB55
:1011E0008347541493F78700E39607F41305000030
:1011F000EFF08F9613051000EFF00F961305200007
:10120000EFF08F951309050013053000EFF0CF9430
:10121000130A050013054000EFF00F9413040500B6
:1012200013055000EFF04F93930905009305090053
:10123000371500F8EFE0DFE9370908F993050901F0
:10124000371500F8EFE09FE493050A00371500F822
:10125000EFE01FE893050901371500F8EFE01FE301
:1012600093050400371500F8EFE09FE693050901A8
:10127000371500F8EFE09FE193850900371500F876
:10128000EFE01FE593050901371500F8EFE01FE0D7
:10129000130500723305A402379498001304046800
:1012A000335485021307A0003374E40213140401BD
:1012B000B7470F0093870724B357F502B3F7E70248
:1012C0009397C7003304F400B78701009387076A38
:1012D000B357F502B3F7E702939787003304F4009E
:1012E000B727000093870771B357F502B3F7E702FA
:1012F000939747003304F4009307803E3375F5025B
:101300003375E5023304A400B7170000E3E8F4E204
:1013100093050400371500F8EFE09FDB9305090102
:10132000371500F8EFE09FD6370908F99305C90390
:10133000371500F8EFE09FD59305C903371500F87E
:10134000EFE0DFD4B70710F823A4870023A6070037
:101350001307100023A6E70023A60700B7F7FFFF37
:10136000B384F4006FF09FDD130101FC2320110012
:101370002322510023246100232671002328A10089
:10138000232AB100232CC100232ED1002320E10207
:101390002322F10223240103232611032328C1035E
:1013A000232AD103232CE103232EF103EFE09FFA3C
:1013B0008320010083224100032381008323C10095
:1013C0000325010183254101032681018326C101F3
:1013D0000327010283274102032881028328C102D7
:1013E000032E0103832E4103032F8103832FC103A7
:0813F000130101047300203019
:02000004F908F9
:100000004D61783332363634205752495445203AC0
:1000100020000000202D3E20524553203A200000B1
:10002000204661696C6564203A2000002D2D2D204A
:100030004D41583330313031202D2D2D0D0A000027
:100040002D2D2D48522F53704F32202D2D2D0D0A5E
:1000500000000000486561727420526174653A20A6
:1000600000000000205B62706D5D0D0A0000000062
:10007000446576696365204D6F6465203D2000000E
:100080004465617373657274656420526573657449
:100090000D0A00005365744F75747075744D6F646C
:1000A00065000000496E7465727275707420546842
:1000B000726573686F6C6400456E61626C652041A7
:1000C00047430000456E61626C652074686520419D
:1000D00046450000456E61626C6520746865204885
:1000E000522F53704F320000693263203020646514
:1000F0006D6F2021000000004D41583332363634F8
:1001000020496E697469616C697A65640D0A000042
:10011000494E4132313920496E697469616C697A9E
:1001200065640D0A000000002D2D2D537461747557
:0C01300073202D2D2D0D0A00200D0A005B
:01013C00556D
:04000005F9000040BE
:00000001FF
